:020000040000FA
:06000000021409020804CD
:03002B000211546B
:0300430002102781
:030053000207356C
:03007B00020F0C65
:1000830002078E015D155D155D155D15BB2CC12C39
:100093005D156130000000003B2F000000000C00E4
:1000A30000000C000101FF01010503010F10FEFF19
:1000B3000160090000C012000080250000403800E4
:1000C30000004B000000960000F8A7000000E100CC
:1000D30000002C010000C2010000F40100008403B1
:1000E3000000E803000008070000100E0040420F64
:1000F30000A5B5C5D5E5FFFF0101010058080000C3
:1001030000881301D008881364006400B801020258
:100113000008000002070101051E02051E020A0A6B
:1001230003B80B02803E01020101FFFF1496511830
:100133000002020611131517191B1D1F10121416A6
:10014300181A1C1D000020410000803FCDCCCC3D7F
:1001530030313233343536373839414243444546FA
:1001630000286E756C6C20706F696E74657229005F
:100173003F3F3F000000807FF9021550B743BA515B
:1001830000E7DB2E0000A040100000000800000084
:100193001214556046121428603DE9687008F61879
:1001A300F618F618F622748067F71201C7090909D1
:1001B300748067F722121428601D121455700519F4
:1001C3001919801A121252701F1212A6C37003E675
:1001D300673319191940071818182208080874FFFB
:1001E300F618F618F618F6221212A66017121494CF
:1001F300702192F012149E7019501720F014080801
:1002030008090909E7F61819E7F61819E7F618199E
:10021300E7F62212149E60E6E869701F0808E624D8
:1002230080F608E436F618547FB47F0CE6548060F9
:1002330007F6E418F618F622181822E9C6CC08C601
:10024300CD08C6CE08C6CFC0E0E8C0E0EAC0E0EB08
:10025300C0E009E9F809E7FA09E7FBE6F918E6F867
:10026300C3EC98ED99EE9AEBC2E7F5F0EFC2E79590
:10027300F0500E600CEBCFFBEACEFAE9CDF9E8CCF7
:10028300F8EAA2E7D2E7FAEB33FB13F5F0EEA2E7C5
:10029300D2E7FEEF33FFC5F013A2E730E601B31355
:1002A300C5F0C3C0E0C0F07F00C39BFB605B941844
:1002B300600C401AD0E023F9D0E0F80203968AF0EC
:1002C300E9486003D2F0E4AFF0FAF9F8803BEB3091
:1002D300E40D89F0EA6003D2F0E4AFF0F9CAF8EB79
:1002E30030E30D88F0EF6002D2F0AFF0E4CAC9F852
:1002F300EB54076014FBC3EA13FAE913F9E813F8A4
:10030300EF135002D2E0FFDBEDD0E0C0E030E7397D
:10031300C3E49FFFF5F0EC98FC42F0ED99FD42F049
:10032300EE9AFE42F0D0E0F9D0E0F8E5F0607AE929
:1003330023F9EE20E742D8028067C3EF33FFEC33A3
:10034300FCED33FDEE33FE80EAEC28FCED39FDEEE7
:100353003AFED0E023F9D0E0F84002801BC3EE134D
:10036300FEED13FDEC13FCEF135002D2E0FF08B8CF
:1003730000067F7F74FF802EEF3350178CF020F040
:100383000260100CBC000C0DBD00080EBE0004087A
:10039300E860DFE933E813FFEE2313FE4F4D4C8093
:1003A30008E95480FFE4FEFDFCEE33EF33F4700400
:1003B300FCFD7E80D0E0FBD0E0FAD0E0F8D0E0CFC7
:1003C300C618CEC618CDC618CCC6F922121428708A
:1003D3000418181822121455700D74FFF61819F624
:1003E3001819F61819F622E7548066F612149E704F
:1003F3000F12149470F014F608F608F608F680D17C
:10040300121494700CF608F608768008E6447F8090
:10041300EC1212A9700C12125560BFE65480F6E478
:1004230080BB121255700519191980A5E869700C63
:10043300763F18768018F618F6E8F922E6CDC0E084
:1004430018ECC0E0E633CD33CDD313F6E719FCE760
:10045300191933CC33C3947F400ECD9D502408E645
:100463005480F6E418F6800FF4043D14501408E6A3
:10047300447FF6187680E418F618F6D0E0FCD0E056
:10048300FD22CCD313CCFD18E4C6CBC0E018E4C6E0
:10049300CAC0E00808ED08C633E613F618E433C60D
:1004A30075F003C3CA97CA09CB97CB199C40047D47
:1004B30008802EBD000302057816B6FF0506060860
:1004C3001618C3CA33CACB33CB33CA27CA09CB37AF
:1004D300CB193CC37D08803E187D0820E75CC633FA
:1004E300C6CA33CACB33CB33DDF1D5F0EB30E77B70
:1004F300CA97CA09CB974ACB199C406F4B7025E624
:1005030020E0218066187D08C3CA97CA09CB97CB20
:10051300199CD3C633C6CA33CACB33CB3350C9DDD8
:10052300E7D5F0E1D3E4C636C608C636C608C636F4
:10053300C608C636C61818188031C3CA97CA09CB6D
:1005430097CB199CB34097C633C6CA33CACB33CBB8
:1005530033DD34D5F02EC6A2E0C640C8CA27CA0987
:10056300CB37194A70BECB3CB480B90808E63308D0
:10057300E633601F181818D0E0FAD0E0FBD0E0FC97
:10058300D0E0FD22187D08CA27CA09CB37CB193C16
:10059300D3808013F618E4B67F11F618B6FF0EF673
:1005A30018C60470D20808768080CAF618F618F6C2
:1005B30080C500121428604F1214556012E754804E
:1005C30066F61212527011121494703B090909F461
:1005D300F618F618F618F6221212A6701512149EC3
:1005E30008080860EAE6447FF618768018E4F618EF
:1005F300F62212149E60161214947012E4F608F692
:1006030008F608E65480F609090918181822EAC002
:10061300E0EBC0E0ECC0E0EDC0E0E687F0A4FBACAB
:10062300F008E687F0A42CFCE435F0FA1809E68715
:10063300F0A42C4B60027401CA35F0FCE433FB09CF
:10064300E687F0D2F7A42CCB35F0FC1908E687F047
:10065300A42BCC35F0FBE433FD0819E687F0D2E791
:10066300A42C4ACB35F0CD3400FC09E687F0D2E761
:10067300A42DCC35F0FDE433FA0918E687F0D2F760
:10068300A42CCD35F0CA3400FC08E687F0D2E7D2BB
:10069300F7A42ACC35F07A7E20E70B0ACB33CBCDF7
:1006A30033CDCC33CC33CB3350147004ED30E00E68
:1006B300D2F1E4CD3DCDCC3CCC3B5005DA05C2F1C3
:1006C300EB547FC63308E63392F0FBE73309E73395
:1006D300C39A502D2B70190C0D4C4D70151806E64E
:1006E30008C333700D20F10AA2F013F6E418800B4F
:1006F3004024E4F630F002768018F618F618F680F7
:1007030024D33B14501074FFA2F013F6187680E440
:1007130018F618F6800FA2F013F618E63303F6184E
:10072300ECF618EDF6D0E0FDD0E0FCD0E0FBD0E035
:10073300FA22C0E074F1120C15A2AFE433FED2AF7B
:10074300E5A7FFE5A1F5085FF509741055096006F3
:100753001228CB75A1EF7408550960081228D175CA
:10076300A1F7801AEFA2E0C0D0E508A2E092F01250
:10077300136A158182F0500612299175A1FE751A2C
:1007830000EEA2E092AF7F02020C74C0E074F2129A
:100793000C15A2AFE433FED2AF9061A4E0F8759BD1
:1007A30000E59158540860087591F7122925802AAD
:1007B300E59158541060087591EF12292B801BE8BE
:1007C300A2E0C0D0E591A2E092F012136A158182F3
:1007D300F05007E0C2E0F0122A939061A3E0F8E53D
:1007E300E9585404600E122A6975E9FB906193E09D
:1007F300A2E640F2751A00EEA2E092AF7F01020C6E
:1008030074C0E074F2120C15A2AFE433FED2AF90C1
:1008130061A5E0F8E5BF585404600675BFFB122AD2
:10082300AB751A00EEA2E092AF7F01020C74C3E431
:1008330098F8E499F91208728026C3E49AFAE49BC3
:10084300FBE920E7E9120872E498F8E499F922C376
:10085300E498F8E499F9120872E498F8E499F9C372
:10086300E49AFAE49BFB22EB20E7CFE920E7E0B927
:100873000010BB0008E88AF084F8AAF022E4FBC861
:10088300FA22EB70227B10C833C8C933C93350072F
:10089300C39AC3DBF280069A50012ADBEAC833F419
:1008A300C8C933F4C9FA2275F008E4C833C8C93398
:1008B300C933C99AC99B5004C92AC93BD5F0ECFB7B
:1008C300C833F4C8E4C9FA2212090B20F01430E744
:1008D3002B74FFFCFBFA747F8022E4FCFBFA748028
:1008E300801AB48008BC00F2BB00EF800F50EBF914
:1008F300E4C39AFAE49BFBE49CFCE499C6CC18C6D7
:10090300CB18C6CA18C6F922E4C9C608CAC608CB9A
:10091300C6D3330308CCC63392F0C3947F402E94DE
:10092300184019C9B90704CACBCC225025C309CA38
:1009330033CACB33CBCC33CC33D9F422F4600DC9D7
:10094300CCC313CB13CBCA13CAD9F6CC22E4FCFB1A
:10095300FA2214FCFBFA22080808EAC0E0EBC0E024
:1009630086F0E7A4FA180986F0E7A42AFA1809869C
:10097300F0E7A42AFA180986F0E7A42AFA1986F000
:10098300E7A4FBE5F02AFA190886F0E7A42BFBE5B8
:10099300F03AFA190886F0E7A42BFBE5F03AFA18C7
:1009A300180986F0E7A4C5F02BFBE43AFA1908E727
:1009B300C5F0C6A426F6E5F03BFBE43AFA1886F048
:1009C300E7A4F6E5F00826F6E43B08F6E43A08F671
:1009D300D0E0FBD0E0FA22D083D082ECC0E0EDC0BF
:1009E300E0EEC0E0EFC0E0E493A3FCE493A3FDE4F6
:1009F30093A3FEE493A3FFEF4E4D4C6015120ECF6D
:100A0300EC24FFFCED34FFFDEE34FFFEEF34FFFF7B
:100A130080E5E493A3FCE493A3FDE493A3FEE493B2
:100A2300A3FFEF4E4D4C6015121073EC24FFFCED49
:100A330034FFFDEE34FFFEEF34FFFF80E5D0E0FF2F
:100A4300D0E0FED0E0FDD0E0FCE493A3C0E0E4936B
:100A5300C0E022080808E630E7111212BB120A6E42
:100A6300080808C64480C618181822181818E97907
:100A73009EC608CAC608CBC608CCC6C370207996E2
:100A8300CACBCC7019798ECBCC70137986CC700E0F
:100A9300F9802ACA33CACB33CBCC33CC331930E7F2
:100AA300F2CCCBCA3350147004EA30E00DE4CA3AF6
:100AB300CACB3BCBCC3CCC500209C3E913C6CC1800
:100AC3002313C6CB18C6CA18C6F922E4CFC0E0E484
:100AD300CEC0E0E4CDC0E0E4CCC0E075F020C3E6D6
:100AE30033F608E633F608E633F608E633F6181865
:100AF30018EC33FCED33FDEE33FEEF33FFC3EC971D
:100B030009ED9709EE9709EF97191919400FFFECB3
:100B130097FC09ED97FD09EE97FE191906D5F0BE6E
:100B2300ECF709EDF709EEF709EFF7191919D0E01A
:100B3300FCD0E0FDD0E0FED0E0FF222518C582C046
:100B4300E0E51934FFC583C0E0E518C3958224F8B6
:100B530010AF0885831985821880088583198582DB
:100B630018D2AFCEF0A3E520F0A37808E608F0A3EF
:100B7300DEFAEFF0A3E58124FAF8E608F0A3E6082D
:100B8300F0A3E608F0A30808E608F0A3E608F0A33C
:100B930015811581D0E0FED0E0F81581158115810E
:100BA300E8C0E0EEC0E022121489B90003020BFF93
:100BB300E4900301788E790F8002F0A3D8FCD9FA70
:100BC300781A9000867A01BA00028007E493A3F6AC
:100BD30008DAF990118EAA82AB83900087780D7999
:100BE300028015E493A3AC82AD838A828B83F0A346
:100BF300AA82AB838C828D83D8E9D9E77582D875B5
:100C030083BE740512113675822375832E74001208
:100C13001136C0D02518C582C0E0E51934FFC5835D
:100C2300C0E0E518C3958224F310AF0885831985C6
:100C330082188008858319858218D2AFC8F0A3E98A
:100C4300F0A3EAF0A3EBF0A37908E709F0A3D8FA3D
:100C5300ECF0A3EDF0A3EEF0A3EFF0A3D0E0F0A34C
:100C6300D0E0F0A3D0E0F0A3E520F0A3E5F0F0A3FB
:100C730022851983851882E0C0E0A3E0F9A3E0FA96
:100C8300A3E0FBA37808E0F608A3DFFAE0FCA3E007
:100C9300FDA3E0FEA3E0FFA3E0C0E0A3E0C0E0A368
:100CA300E0F5D0A3E0F520A3E0A3F5F010AF0885AD
:100CB30083198582188008858319858218D2AFD05D
:100CC30082D083D0E0F8D0E03275F0108E218F22ED
:100CD300858226858325851882851983E0CEA3E046
:100CE300CF852682852583EBC9EAC8EDCBECCAC341
:100CF300E833C8E933C9EA33CAEB33CBC3EA9EF519
:100D030024EB9FF523B35004AB23AA24EC33CCED9F
:100D130033CDD5F0DAAE21AF2222121428601C1293
:100D23001455601712149E70071214947001D32285
:100D3300C0D01214947006D0D0B322C32233D0D0C3
:100D4300501430E0F6C3E7960809E7960809E796DA
:100D53000809E796B32220E0D5E6970809E6970845
:100D630009E6970809E697B322D083D082ECC0E066
:100D7300EDC0E0E493A3FCE493A3FDED4C600D12FE
:100D83000E90EC24FFFCED34FFFD80EFE493A3FC15
:100D9300E493A3FDED4C600D120FD2EC24FFFCEDA8
:100DA30034FFFD80EFD0E0FDD0E0FCE493A3C0E08E
:100DB300E493C0E022121428601B1214556016122B
:100DC300149E7007121494600CB322C0D0121494B2
:100DD3007005D0D022C32233D0D0501330E0EBC300
:100DE300E7960809E7960809E7960809E796222097
:100DF300E0E4E6970809E6970809E6970809E69705
:100E030022D083D082E9C0E0E493A3C386F0C5F087
:100E130095F0F908E493A386F0C5F095F0700BE420
:100E230093A3C3994005E9048002A3E475F002A4E7
:100E33002582F582E5F03583F583D0E0F9E493A3C9
:100E4300C0E0E493C0E022851983851882E0A3FE05
:100E5300E0A3F5207808E0A3F608DFFAE0A3FFE0BB
:100E6300A3C0E0E0A3C0E0E0A3C0E0E0A3C0E0E0F3
:100E7300A3C0E010AF088582188583198008858296
:100E830018858319D2AFD083D08202113CC0E0C34E
:100E9300E49396087401939618400FE493667008E0
:100EA30008740193661870007019A3A3C3E49396A2
:100EB300087401939618A3A3400DD0E0D0E0D0E0CE
:100EC300020DA8A3A3A3A3A3A3D0E022C0E0C0F074
:100ED30088F01212CFA8F040071211F5A8F0701A8B
:100EE300A3A3A3A31212CFA8F0A3A3A3A34013D039
:100EF300F0D0E0D0E0D0E0020A40A3A3A3A3A3A3D1
:100F0300A3A3A3A3D0F0D0E022C0E074F2120C1587
:100F1300A2AFE433FED2AFE58AA2E450047A0480A0
:100F230008E58AA2E7500C7A107B00900819E0F9D3
:100F330012221D758A00C2EB751A00EEA2E092AF71
:100F43007F01020C747404800474028000CCC0E03E
:100F5300EDC0E0E518C39CCCAD1950011D10AF06E0
:100F63008C188D1980068C188D19D2AF1210B8D039
:100F7300E0FDD0E0FC2274028000CCC0E0EDC0E0D4
:100F8300E518C39CCCAD1950011D10AF068C188D0C
:100F93001980068C188D19D2AF121096D0E0FDD0AF
:100FA300E0FC221214286025121455602012149EAE
:100FB3007003021494080808E76670101819E766AE
:100FC300700A1819E76670041819E76622F422C03C
:100FD300E0C0F088F0E49366700808740193661823
:100FE3007000A8F0A3A3700BD0F0D0E0D0E0D0E065
:100FF300020DA8A3A3D0F0D0E022D083D082CCC02E
:10100300E0E493A360061210F81470FAE493A3606B
:101013000612123C1470FAD0E0FCE493A3C0E0E49F
:1010230093C0E022C0E074F2120C15A2AFE433FEC9
:10103300D2AFC2C0E5D1A2E45003122823751A002F
:10104300EEA2E092AF7F01020C74C008C3E096F5F4
:101053000808A3E096420808A3E096420808A3E024
:10106300964208A2D265D033E5087001D3D0082296
:10107300C0E0C0F088F01211F5A8F0A3A3A3A370F9
:101083000BD0F0D0E0D0E0D0E0020A40A3A3D0F030
:10109300D0E022CAC0E0E493A3C582CCC582C58355
:1010A300CDC583F0A3C582CCC582C583CDC583DA04
:1010B300E5D0E0CA22CAC0E0E0A3C582CCC582C5A0
:1010C30083CDC583F0A3C582CCC582C583CDC5833B
:1010D300DAE6D0E0CA22C008C3E096F50808A3E028
:1010E30096420808A3E096420808A3E096450870D4
:1010F30001D3D00822C0E0E493A3D39C5010E4931F
:10110300A3C39C400AD0E0D0E0D0E002101AA3A30E
:10111300A3D0E0227009080808226016181818C620
:10112300C333C608C633C608C633C608C633C6D5D6
:10113300E0EA22C09FF59FE473D09F22D083D08240
:10114300C09FE493C0E0740193C0E0740293F59FE1
:1011530022C0E0C0D0E8C0E0A2AFE433D2AFC2C740
:10116300751A00A2E092AFD0E0F8D0D0D0E032748C
:1011730004800A74038006740280027401C0E0F4E0
:101183000412118DD0E0121464222518F58210AFD9
:1011930008F518400215198008F51840021519D2F0
:1011A300AF85198322C0D0251810AF08F518500257
:1011B30005198008F51850020519D2AFD0D022BB0B
:1011C3000102E722C082C08389828A83BB0003E0D5
:1011D3008002E493D083D082226016080808C6C335
:1011E30013C618C613C618C613C618C613C6D5E049
:1011F300EA22E4936670130874019366700C087412
:101203000293667005087403936622C3E0C696F6DC
:1012130008A3E0C696F608A3E0C696F608A3E0C6C0
:1012230096F622251810AF08F51840021519800804
:10123300F51840021519D2AF22C0E0E493A36C70F5
:1012430009D0E0D0E0D0E002101AA3A3D0E0221826
:101253001818E6084608700AE608C3337005E63333
:10126300F4220822E066701008A3E066700A08A35F
:10127300E066700408A3E06622E76670100809E7D9
:1012830066700A0809E76670040809E76622C3E086
:101293009608A3E09608A3E09608A3E096A2D26579
:1012A300D03322191919E7094709700AE709C3332B
:1012B3007005E733F4220922181818E4C396F608D8
:1012C300E496F608E496F608E496F622C3E49396C9
:1012D30008740193960874029396087403939622F4
:1012E300C3E096F008A3E096F008A3E096F008A305
:1012F300E096F022C3E697F60809E697F60809E6B2
:1013030097F60809E697F622E026F008A3E036F000
:1013130008A3E036F008A3E036F022E026F608A39F
:10132300E036F608A3E036F608A3E036F622E62711
:10133300F60809E637F60809E637F60809E637F648
:1013430022E657F60809E657F60809E657F60809AC
:10135300E657F622E056F608A3E056F608A3E05651
:10136300F608A3E056F622C0E0E8C0E0E58124FCDD
:10137300F8E6A2E7D0E0F8D0E022E647F60809E66F
:1013830047F60809E647F60809E647F622E056F06D
:1013930008A3E056F008A3E056F008A3E056F022B5
:1013A300700422600D18C6C333C608C633C6D5E021
:1013B300F41822E667F60809E667F60809E667F611
:1013C3000809E667F622C3E7960809E7960809E7DE
:1013D300960809E79622C6F4C608C6F4C608C6F4FA
:1013E300C608C6F4C622C3E09608A3E09608A3E0A5
:1013F3009608A3E09622600D08C6A2E713C618C696
:1014030013C6D5E0F32275D00075814075180175B8
:10141300190300020BAAE6F008A3E6F008A3E6F01E
:1014230008A3E6F022E6084608C313460833600221
:10143300E633F422600C08C6C313C618C613C6D518
:10144300E0F422E0F608A3E0F608A3E0F608A3E040
:10145300F622E7094709C3134709336002E733F468
:1014630022CAC0E0E6F0A308DAFAD0E0FA22EAF0F2
:10147300A3EBF0A3ECF0A3EDF022E0FAA3E0FBA3CF
:10148300E0FCA3E0FD22E5C754F84401F5C7790168
:1014930022E7C33319471947194722E6C3331846CE
:1014A30018461846222518F582E43519F58322C219
:1014B300AF75D69F0200002212113FB9DD0212114F
:1014C3003FC3DD0212113FFEDD0212113F14DE02A3
:1014D30012113F1DDE0212113F72DE0212113F860E
:1014E300DE0212113F94DF0212113FA7DF02121135
:1014F3003FBEDF0212113FD3DF0212113F75E0023C
:1015030012113FF8E00212113FB6E10212113FC17E
:10151300E10212113FEDE20212113F09E30212113F
:101523003F5BE30212113F9AE30212113FAFE30262
:1015330012113F11E40212113FA0E40212113FEB1A
:10154300E40212113F3CE70212113FBAE702121103
:101553003F2FE80212113F51EA0212113F69EA02DA
:1015630012113F6CEA0212113F78EA0212113F8C0A
:10157300EA0212113F94EA0212113FC7EA02121162
:101583003F77EB0212113FEDEB0212113F60EC02C9
:1015930012113F14ED0212113FC9ED0212113FE87F
:1015A300ED0212113F88EE0212113F94EE02121166
:1015B3003FBFEE0212113FC2EE0212113FF1EE02E3
:1015C30012113F06EF0212113F70EF0212113F9802
:1015D300F00212113F70F10212113FFBF1021211DE
:1015E3003F14F30212113FD1F30212113F0AF40226
:1015F30012113F3BF40212113FF9F40212113F2979
:10160300F50212113F04F60212113F9DF602121168
:101613003F28F70212113FD9F70212113F5CF8027B
:1016230012113F8EF80212113FCFF80212113F043C
:10163300F90212113F00800212113F3A8002121187
:101643003F6A800212113F32810212113F5F810211
:1016530012113F23820212113F6E820212113F9A2E
:10166300830212113FDC830212113F4B86021211D7
:101673003FDC880212113F9C890212113F3C8A020F
:1016830012113F488A0212113F888A0212113FC089
:101693008D0212113FF18D0212113F508E02121171
:1016A3003FA28E0212113FD88E0212113FFF8F020A
:1016B30012113F18900212113F6F900212113F82D4
:1016C300900212113F85900212113FB39002121142
:1016D3003F22910212113FF7920212113FBA930275
:1016E30012113FEC930212113F3F940212113F4932
:1016F300950212113FE6950212113F8196021211D3
:101703003FC1970212113F45980212113F7398028D
:1017130012113F0D990212113F26990212113F57E0
:10172300990212113F71990212113FF1990212119C
:101733003FA69B0212113FEE9B0212113F609C02D7
:1017430012113F979E0212113F3A9F0212113F213D
:10175300A00212113F31A00212113F48A002121140
:101763003F5DA00212113F90A00212113FC4A002DC
:1017730012113F86A20212113F38A30212113FB485
:10178300A30212113F16A40212113F74A4021211F4
:101793003F9DA40212113F0DA50212113F66A5023F
:1017A30012113FDFA50212113F32A80212113FECC2
:1017B300A90212113F98AA0212113FDFAB021211C4
:1017C3003F7DAE0212113F83B10212113F90B1026D
:1017D30012113F1EB20212113FD0B20212113F1872
:1017E300B30212113F78B30212113F94B3021211E4
:1017F3003FC8B30212113FFDB30212113FE6B40218
:1018030012113F9BB50212113FF0B70212113F3D77
:10181300B90212113FE0B90212113F6DBA0212115F
:101823003F0CBB0212113F40BB0212113FBBBB0274
:1018330012113F95BC0212113F5CBD0212113F749D
:10184300BD0212113F0BBE0212113F7CC0021211E6
:101853003F91C20212113FAFC20212113FCA3200BE
:1018630012113FFF320012113F25330012113F5F67
:10187300330012113F71330012113FC333001211B1
:101883003F24340012113FAE340012113F52350091
:1018930012113F9A350012113FD4350012113FF156
:1018A300350012113F16360012113F68360012112F
:1018B3003F81360012113FA7360012113FE2360076
:1018C30012113F26370012113F4D370012113F9E70
:1018D300370012113F4E380012113F063900121122
:1018E3003FCE390012113F8E3A0012113FD23A0017
:1018F30012113FF73A0012113F3A3B0012113F8792
:101903003B0012113FDF3C0012113F653D001211F5
:101913003F833D0012113FAD3D0012113FC73D0013
:1019230012113FD63D0012113FE13D0012113FA1BC
:101933003E0012113FFA3E0012113FBC3F0012114C
:101943003FC43F0012113F3C400012113F8B400047
:1019530012113FD1400012113F12410012113FA258
:10196300420012113F5A430012113FC643001211A5
:101973003FF1440012113F16450012113F27450065
:1019830012113F9D450012113F2F460012113F8750
:10199300460012113F47470012113F6647001211DC
:1019A3003F75480012113F93480012113FA54800AC
:1019B30012113FF8480012113F35490012113F42FE
:1019C300490012113FC54A0012113F244C00121165
:1019D3003F3D4C0012113F864D0012113F214E0036
:1019E30012113F5A4E0012113FA64E0012113FC270
:1019F3004F0012113F0B520012113F1652001211E9
:101A03003F21520012113F2C520012113F36520057
:101A130012113F41520012113F5B520012113F65F8
:101A2300520012113F6F520012113F7A52001211ED
:101A33003F85520012113FAD520012113F0853006F
:101A430012113F12530012113F36530012113F5A25
:101A5300530012113FB8530012113FFC53001211EF
:101A63003F18540012113F8F540012113FC7540006
:101A730012113F13550012113F70550012113F2AE6
:101A8300560012113F0E580012113F6758001211F1
:101A93003F97590012113FBD590012113F465B0099
:101AA30012113FC25E0012113F94600012113F5D9C
:101AB300620012113F0A630012113F756400121194
:101AC3003F14650012113F61650012113FCB6500A1
:101AD30012113FDA650012113F61680012113F13C2
:101AE3006A0012113F806A0012113F5F6B001211EE
:101AF3003F786C0012113FF56D0012113F146E0018
:101B030012113F696E0012113F6E6F0012113F9662
:101B13006F0012113FEE6F0012113FCD70001211D2
:101B23003F11710012113F5C710012113FC7710028
:101B330012113F08730012113F6C730012113FBA68
:101B4300740012113F1A770012113F4B77001211E4
:101B53003F03790012113F58790012113F5C7A005C
:101B630012113FF97A0012113F527B0012113F0507
:101B73007C0012113FA77C0012113F477D00121118
:101B83003FEC7D0012113F06850112113F4F850185
:101B930012113FC7870112113F06880112113F50EE
:101BA300880112113F8E890112113FED8901121133
:101BB3003F218A0112113F5F8A0112113FD28B012B
:101BC30012113F958E0112113FC88F0112113F5E12
:101BD300900112113FB5990112113F4F9A01121151
:101BE3003F369D0112113F509E0112113FB19E01DC
:101BF30012113FCD9F0112113F13A10112113FF5A5
:101C0300A10112113FDAA30112113FEBA501121139
:101C13003F59A60112113F2BA70112113FE2A70161
:101C230012113FECA70112113F1BA80112113FD85B
:101C3300A80112113FAFA90112113F76AA01121197
:101C43003F11AB0112113F88AB0112113FB1AB0140
:101C530012113FD3AB0112113F23AE0112113FFB0F
:101C6300AE0112113F3FAF0112113FA7AF01121195
:101C73003F5FB00112113F91B00112113FD5B00186
:101C830012113F0BB10112113F57B10112113FACB9
:101C9300B10112113FB1B10112113F04B20112118E
:101CA3003F29B20112113F39B30112113FB1B30100
:101CB30012113F0DB40112113F99B40112113F8863
:101CC300B70112113F6BB80112113F02BA01121191
:101CD3003F38BC0112113FE6BC0112113F97BD0111
:101CE30012113FD9BF0112113F7CC00112113FC332
:101CF300C00112113F6FC20112113F83C2011211C1
:101D03003F8DC20112113FB5C20112113FC1C20181
:101D130012113FE0C20112113F2AC50112113F5FA8
:101D2300C50112113F69C50112113F73C50112119B
:101D33003FCEC50112113F2AC60112113F3EC70112
:101D430012113F9FC70112113FEEC80112113F321A
:101D5300C90112113FDAC90112113FBDCA011211A3
:101D63003F68CB0112113FB4CC0112113FB2CD0138
:101D730012113F58CE0112113FE8CE0112113FFF5D
:101D8300CE0112113F36CF0112113F40CF01121184
:101D93003F4BCF0112113F69CF0112113FADCF016C
:101DA30012113F0AD00112113F2FD00112113F49E6
:101DB300D00112113FDBD00112113F05D2011211E4
:101DC3003F7CD20112113F63D30112113F99D3011A
:101DD30012113F0DD40112113F87D40112113F8B11
:101DE300D50112113F81D60112113F36D7011211CD
:101DF3003F49D80112113FE5D80112113F72D901B1
:101E030012113F50DA0112113F88DA0112113FE03B
:101E1300DA0112113FA9DB0112113FCADB011211D2
:101E23003F51DC0112113F75DC0112113F97DC01B8
:101E330012113FE0DC0112113FF6DE0112113FDD0A
:101E4300DF0112113F88E00112113FC5E2011211B7
:101E53003F15E30112113F55E30112113F97E301CF
:101E630012113FF1E30112113F1FE40112113F432D
:101E7300E40112113F96E40112113FC4E40112116F
:101E83003FFDE40112113F5CE50112113FC9E50179
:101E930012113F18E70112113F3BE90112113FA450
:101EA300E90112113FCDE90112113F58EA01121164
:101EB3003FC4EA0112113F0FEB0112113F33EB0153
:101EC30012113F57EB0112113FB3EB0112113FCE39
:101ED300EB0112113F87EC0112113FC1EC0112110A
:101EE3003F1ECD0412113F96CD0412113FD0CD04F5
:101EF30012113F2ACE0412113F76D00412113FE58E
:101F0300D20412113F09D60412113F38D60412111C
:101F13003F5CD60412113FDCD60412113F19D704DB
:101F230012113F3ED70412113F69D70412113FA784
:101F3300D70412113F01D80412113FC3C004121178
:101F43003F4CC10412113FA1C10412113FFDC10452
:101F530012113F84C30412113FA0C30412113FE7BF
:101F6300C30412113F93C40412113FDFC4041211BE
:101F73003FC3C50412113FC3C60412113F38C7043F
:101F830012113FB7C70412113F1CC80412113F6658
:101F9300C80412113F25C90412113F3CCA0412118F
:101FA3003FB4CA0412113F10CB0412113F4FCB04AC
:101FB30012113FF3CB0412113FACCC0412113FAC0E
:101FC3009F0312113F9AA10312113F5CA203121146
:101FD3003FF5A20312113F8BA30312113FD4A303B6
:101FE30012113F67A50312113FAEA60312113FB6AC
:101FF300A70312113FABA80312113FD6A903121175
:102003003FEEAA0312113F9AAB0312113F31AC0307
:1020130012113FEBAC0312113F93AD0312113F3C7E
:10202300AE0312113FDCAE0312113F91AF03121145
:102033003F49B00312113F38B10312113FDDB10321
:1020430012113F9FB20312113FDAB20312113F087C
:10205300B40312113F4CB50312113F7AB6031211A8
:102063003FD3B70312113FE6B90312113F1FBB035E
:1020730012113F5DBC0312113F2BDA0212113FC054
:10208300B30412113F3C8F0512113F528F051211F9
:102093003F678F0512113F788F0512113F898F0516
:1020A30012113F988F0512113FA18F0512113FA7FF
:1020B3008F0512113FC5900512113F66910512114C
:1020C3003F29920512113FE8930512113F0A940527
:1020D30012113F9A940512113F01950512113F26E3
:1020E300EC0412113F3EF40412113F91F404121157
:1020F3003FACF80412113F8AF90412113FB9F904F5
:1021030012113FF7DC0212113F87FA0412113F1834
:10211300FB0412113F73FB0412113F44FC04121120
:102123003F7B950412113F2F980412113F02A20422
:1021330012113F6BA20412113F53A30412113FDF8C
:10214300A30412113FDFA40412113F8FD305121110
:102153003F31D40512113FA8C90512113FB6C90575
:1021630012113F07CA0512113F4FCA0512113FF959
:10217300CA0512113FCCD10512113FFAC405121141
:102183003F50C60512113F55D80512113F35C805FA
:1021930012113F56C80512113FB1C80512113F3B3A
:1021A300C90512113F65C90512113F4ABA0512113B
:1021B3003FEFBB0512113F68BC0512113F78BC0508
:1021C30012113FD7870512113F1F880512113F8D4A
:1021D300880512113FB0880512113F8D8905121130
:1021E3003F9B890512113FF0890512113F228A0591
:1021F30012113F858A0512113F0F8B0512113F56AD
:102203008B0512113FAE8B0512113F138C05121172
:102213003F4A8C0512113FC58C0512113F268D05CF
:1022230012113F688D0512113FB08D0512113FC287
:102233008D0512113FD48D0512113FF78D05121133
:102243003F038E0512113FC18E0512113F078F0503
:1022530012113FCDCF0512113F75D00512113F9ECC
:10226300BC0512113FD4BC0512113F1FBD0512114D
:102273003F71BE0512113F00800412113F438104D8
:1022830012113F89810412113F74830412113FA874
:10229300830412113F42860412113F8A86041211ED
:1022A3003F4C880412113F03890412113F6E8904C5
:1022B30012113FE0890412113F878A0412113FC6AD
:1022C3008A0412113F0B8B0412113F588B04121115
:1022D3003FDF8C0412113FA48E0412113F97900428
:1022E30012113FC7900412113F0E910412113F1CAB
:1022F300910412113F81910412113FE094041211D1
:102303003F5DD90512113F73D90512113F83D905DA
:1023130012113FAFD80512113FEAAF0512113F0169
:10232300B00512113FA2B00512113FE2B005121120
:102333003FFDB00512113F24B10512113F69B105EC
:1023430012113F9DB10512113FD1B10512113F7713
:10235300B30512113FC9B30512113FB4D2051211CF
:102363003FD9D20512113FF8D20512113F14D305FC
:1023730012113F56D30512113F69D30512113F774E
:10238300D30512113F62F90212113FE1F902121152
:102393003FB4FE0212113FA9BD0312113F00BE0359
:1023A30012113F87BE0312113F92BF0312113F3038
:1023B300C00312113F13C10312113F2AC1031211AB
:1023C3003F79C10312113FD3C10312113F3FC2032F
:1023D30012113F56C20312113FBCC20312113FBF79
:1023E300C20312113F32C60312113FA0C7031211D9
:1023F3003FFFC70312113F49C80312113F83CA03AA
:1024030012113FFACA0312113F92CB0312113FADCF
:10241300CB0312113FC4CB0312113F11CC03121192
:102423003F4FCC0312113F84CC0312113FB9CC03AD
:1024330012113FFCCC0312113FA4CD0312113F072D
:10244300CE0312113F60CE0312113FA9CF03121125
:102453003FDDCF0312113FAAD20312113FDED20395
:1024630012113F6AD30312113FF3D30312113F2119
:10247300D40312113F74D40312113FFBD40312117E
:102483003FECD50312113F28D60312113F36D60372
:1024930012113F39D60312113F59D60312113FDAF5
:1024A300D60312113F07D70312113F27D703121187
:1024B3003F55D70312113F92D70312113FADD703F4
:1024C30012113FB8D70312113F12D80312113FC3A1
:1024D300CD0512113FD4CD0512113F71CE05121156
:1024E3003F00800512113F51800512113F478105BE
:1024F30012113F7D810512113F5E830512113FA426
:10250300830512113FFA830512113F6384051211EB
:102513003F6B850512113FA9860512113FCB860536
:1025230012113F1F870512113FA3870512113F00A8
:10253300800312113F20800312113F4080031211C8
:102543003F72810312113FBB810312113F1A8203B1
:1025530012113FA8820312113F0D830312113FB5DD
:10256300830312113F5D840312113F45850312114A
:102573003FF9850312113F3F860312113F3B8B0343
:1025830012113F1B8D0312113F5A8D0312113F5D30
:102593008D0312113FD78F0312113FF593031211CD
:1025A3003FFF940312113F73960312113F409A03A6
:1025B30012113F549A0312113F279C0312113FFD3E
:1025C3009C0312113F3E9E0312113F8B9E03121177
:1025D3003FF69E0312113F0BED0112113FDAED019D
:1025E30012113F5FEE0112113FFBEE0112113F95F5
:1025F300EF0112113FE0F20112113F32F401121107
:102603003FC3F40112113FF3F60112113FB4F70176
:1026130012113F4AF80112113F37F90112113F5EBF
:10262300FA0112113FFDFA0112113F0CFC011211C4
:102633003F3DD80312113FDCD80312113F5AD9038F
:1026430012113FC9D90312113F20DA0312113FE1DE
:10265300DA0312113F05DC0312113F79DC03121177
:102663003FC3DC0312113F2CDD0312113FDFDD03F7
:1026730012113FF5DD0312113F7BDE0312113FBA46
:10268300DE0312113F22E00312113F40E003121157
:102693003F75E00312113F68E10312113F7DE1032F
:1026A30012113FB1E10312113F13E20312113F3A3A
:1026B300E20312113FFFE20312113F18E303121169
:1026C3003F34E30312113F53E30312113F72E30359
:1026D30012113F9BE30312113F80E40312113F5B8E
:1026E300E50312113F36E60312113F99E603121177
:1026F3003FB4E60312113FB9E60312113F05E703A6
:1027030012113F6FE70312113F7FE80312113FA03D
:10271300E90312113FCBEA0312113FE0EB0312115D
:102723003FAFEC0312113F09ED0312113F23ED03F9
:1027330012113F33EE0312113FE1EE0312113F6C0E
:10274300FD0112113FCFFD0112113F08FE011211CD
:102753003F65FE0112113FC7FE0112113F52FF01F7
:1027630012113F56BF0512113F6EBF0512113F0CE8
:10277300C10512113F0CDA0512113F387E00121108
:102783003F467E0012113FEAFF0112113FDFD605DB
:1027930012113FEFD60512113F03D70512113F5413
:1027A300D70512113FC9CE0512113F4ECF051211A5
:1027B3003FB4CF0512113FEB7F0012113FEE7F00B4
:1027C30012113F26DA0512113F36DA0512113F398D
:1027D300DA0512113F3CDA0512113FF87F0012119E
:1027E3003F22C30512113F44C30512113F71C405B3
:1027F30012113FF7C40512113F389B0512113F6DAB
:102803009B0512113FD99B0512113F959C0512118F
:102813003F109D0512113F6D9E0512113FF99F0553
:1028230012113F5CA00512113FA6A00512113FB47F
:10283300A00512113FC6A00512113FDCA00512111D
:102843003FF2A00512113F00A10512113F16A10589
:1028530012113F74A10512113F49A20512113F80C5
:10286300A20512113FA7A20512113FC0A205121122
:102873003FDEA20512113F6DA30512113F3EA405D1
:1028830012113FDEA40512113F81A50512113FCDA0
:10289300A50512113F10A60512113FA7C605121177
:1028A3003FD0C60512113FE4C60512113F2CC705E0
:1028B30012113F5FC70512113F92C70512113FA3C3
:1028C300C70512113F02C80512113F05C8051211B1
:1028D3003F13C80512113F24C80512113F9FFC0482
:1028E30012113FD9FC0412113F23FD0412113F4B77
:1028F300FD0412113F90FD0412113FC2FD04121199
:102903003FFDFD0412113F24FE0412113F4AFE0451
:1029130012113FA5FE0412113FCDFE0412113F54C4
:10292300FF0412113F6CFF0412113F81FF041211C7
:102933003FB1D90512113FCED90512113F4F95056D
:1029430012113FB8960512113FC5960512113FD6D5
:10295300960512113FEE960512113F459705121188
:102963003F9A970512113F2D980512113FAF980515
:1029730012113F3D990512113F92990512113FCD56
:10298300990512113FBF9A0512113FD39A051211EF
:102993003FE69A0512113F059B0512113F02D5052B
:1029A30012113F2BD50512113F58D50512113F8047
:1029B300D50512113F0FC10512113F36C105121182
:1029C3003F54C10512113FC6C10512113F8EB70511
:1029D30012113FADB70512113FBEB70512113FCC1F
:1029E300B70512113FF0B70512113F03B8051211D5
:1029F3003F16B80512113F2EB80512113F8EB805C8
:102A030012113FCCB80512113FFDB80512113F4F0B
:102A1300B90512113F9EB90512113FBEB905121136
:102A23003FCCB90512113FF7B90512113F3DBA0565
:102A330012113F48D60512113F64D60512113FCD3E
:102A4300D60512113FF2D90512113F4DD8041211C8
:102A53003F86D80412113FAED80412113FC5D804E3
:102A630012113FE4D80412113F47D90412113F7FDA
:102A7300D90412113F77DE0412113FEBDF04121168
:102A83003F25E00412113F82E00412113FEEE104FE
:102A930012113F1AE20412113F33E20412113F47AD
:102AA300E20412113F90E20412113FECE20412110E
:102AB3003F00E30412113F10CB0512113F24CB0555
:102AC30012113F4ACB0512113F6DCB0512113F97EF
:102AD300CB0512113FC3CB0512113FE2CB051211F7
:102AE3003F17CC0512113F3ACC0512113F50D405C4
:102AF30012113F94D40512113FDAB30512113FEEC0
:102B0300B30512113F1CB50512113F4EB505121145
:102B13003F75B50512113F9DB50512113FB6B505B9
:102B230012113FF1B50512113F5BB60512113F9724
:102B3300B60512113FE3B60512113F13B705121183
:102B43003F36B70512113F71CC0512113F94CC05E6
:102B530012113FBDCD0512113FC0CD0512113FCD5E
:102B6300D00512113F27D10512113F67D10512116C
:102B73003FAAD10512113F87AB0512113FA8AB0540
:102B830012113FFBAB0512113F1AAC0512113F4462
:102B9300AC0512113F60AC0512113F7AAC0512115E
:102BA3003F96AC0512113F8BAD0512113FD6AD0513
:102BB30012113FE6AD0512113F02AE0512113F316E
:102BC300AF0512113F3EAF0512113F4CAF05121175
:102BD3003F5AAF0512113F69AF0512113F53A605C6
:102BE30012113F00AB0512113F1DAB0512113F48F7
:102BF300A50412113FDEA50412113F23A6041211EE
:102C03003F63A60412113FDEA60412113F64A7041A
:102C130012113F07D90512113FB3FF0412113FD11F
:102C2300FF0212113FA8D50512113FD2D50512118B
:102C33003F65D70512113FE2D70512113F9DEF0300
:102C430012113FBBF40312113F05D90212113FBF0A
:102C5300D80212113FA1D80212113F81D8021211DA
:102C63003F20D80212113FF6D70212113FBDD702FF
:102C730012113F8BD70212113F74D70212113F0773
:102C8300D70212113FFDD60212113F73D602121161
:102C93003FD9DC0212113FCEDC0212113F6DD50287
:102CA30012113F89D40212113FA2DC0212113F72AA
:102CB300DC0212113FD5D30212113FC7D302121106
:102CC3003FB4D30212113F4DD30212113F34D3024A
:102CD30012113FC0D10212113FB4D10212113F971A
:102CE300D10212113F66D10212113F4BD1021211D0
:102CF3003FFFD00212113FA3D00212113F49D0026D
:102D030012113F40D00212113F2ED00212113F1375
:102D1300D00212113FBFCF0212113FAFCF021211E7
:102D23003FEECE0212113FBDCE0212113F87CE02FB
:102D330012113F67CE0212113FCECD0212113F3363
:102D4300DC0212113FE4DB0212113F8CDB02121191
:102D53003F7EDB0212113F45DB0212113FFFCC0223
:102D630012113F82CC0212113FE7CB0212113F8BAB
:102D7300CB0212113F1DDB0212113F47CB0212118E
:102D83003F3DCB0212113FEFCA0212113FB3CA02F9
:102D930012113FA7DA0212113F19FA0412113F422E
:102DA300CA0212113F24C90212113F67C80212114D
:102DB3003F09C80212113F7DC60212113F7AC502B4
:102DC30012113F78C40212113F98C30212113F52ED
:102DD300C30212113F74EB0412113F74E904121180
:102DE3003FCAE70412113F81E40412113F4CE4048B
:102DF30012113F3CE40412113F32E40412113FCCA0
:102E0300E30412113F8AE30412113F78DA0212112C
:102E13003F69E30412113F31E30412113FD6BC03AF
:102E230000000080FBE4730001363601010001025B
:102E33000100010301000104010606050200000769
:102E43000100340801000F090401010D0100FF0E08
:102E530008000017020000190100FF1A0100011BFE
:102E63000100FE1C0100081D0200001F01000120DB
:102E7300010001210200002301000F2402000026AB
:102E830001000127010008280200FF2A0100072B87
:102E93000102402C0100002D0100012E0100012F31
:102EA3000100FF30010B1C310800003A0100083B10
:102EB30001000F2F010000002020202020202020CF
:102EC30020282828282820202020202020202020D7
:102ED30020202020202020208810101010101010F7
:102EE300101010101010101004040404040404043F
:102EF30004041010101010101041414141414101D0
:102F030001010101010101010101010101010101AE
:102F130001010110101010101042424242424202BD
:102F2300020202020202020202020202020202027E
:102F330002020210101010200103710301030103A8
:102F4300010301030103220302030103100300032E
:102F53000003000300030003000300034203000314
:102F630024030603000300030403120325032303BE
:102F730025032303040304030003000300034403A2
:102F830000030003230300036503210035038103CA
:102F93000003050300030003000303027102300171
:102FA3006002110270020102020202028002100298
:102FB30061023A0041006302730272026202430239
:102FC300000213023800000200020402120200028F
:102FD30000020002000204020402370037003C0230
:102FE30044020002390000020002650200023502B9
:102FF30081020002050282028302000201017101C3
:1030030001010101110101013101010101018001EE
:10301300100161013B00140063017301720162013D
:1030230043010001130106013D01350004011201B2
:103033000001000100010001040104013301330117
:103043003C01440132013600000100016501000129
:1030530035008101000105018201830100010300A4
:103063007100300160001100700031022003500430
:103073008000100061000000140063007300720000
:10308300620043000000130006000000000004007B
:1030930012000000000000000000040004003700DC
:1030A30037003C02440000000000000000006500FF
:1030B30000003500810000000500000083000000CF
:1030C3000304710402046004110470040204020482
:1030D300010402041004610400041404630473046F
:1030E300720462044304000413040604000400048D
:1030F30004041204000400040004000451046400E6
:103103000004000400044404000400040004000458
:103113006504000435048104640005040004830489
:10312300000436000100060000000F00000000004C
:10313300000000000000000003FFFF00000403FF85
:10314300FF0000FFFF0FF4010005C404032000018A
:1031530000140B000000000000000003010F00003A
:10316300EF2513008F250100EF25020059250300E9
:103173005F250400652505006B2506007725FFFF05
:10318300000001DB1B06111C080B1C0B291C104B38
:103193001B0A411C02E11B05FF1B07E71B0CBD1BA0
:1031A3000DCF1BFF0000492C452D79200B2E4B2DF5
:1031B300572D752D3F2DAF2CA92C912C932D4F2CD2
:1031C300552C00160F00000B150B020002220F32C4
:1031D300000006000000000000000089674523018D
:1031E300EFCDAB5A6967426565416C6C69616E638B
:1031F3006530395D156F1575157F2C7B15852C7919
:103203002C140AE5D5C5B5A5A59585857565812DCC
:10321300872D272D212D2D2DA52DC915E715ED154D
:10322300CF15DB15D515000119161816161523032E
:1032330000303017181921301B1D1F300003494877
:10324300424D1817250502303016181920231A1C71
:103253001E300C0E020B040B0A0708000F00383C4B
:103263003E363B3B352B432CB11581158715931502
:103273008D15512D972CE1150321BB140204020176
:1032830001010109026F2D692D7B2D1B2D0000000B
:1032930000000000BE040A632D332D043215000E16
:1032A3000004007F00E803FA060000000028000C79
:1032B3000008100C0A09080900040003FF1E1E0180
:1032C3000C040502030F0874F6120B3E74FF12126E
:1032D30026851882851983E4F08582088583097819
:1032E3000812117A750801750900780812117A120B
:1032F300331E74041211A87401024E1974F6120BD2
:103303003E8C088D09780812117A75080B7509002F
:10331300780812117A12331E024E17123347122203
:10332300F52274F6120B3E8C088D09780812117A77
:1033330075080B750900780812117A1233471222A7
:10334300FB024E17EA75F00BA4FAA8F075F00BEB2D
:10335300A428FBEAFCEBFD7A237B0022C082C08316
:103363008A828B83E0D2E7F01224930248F1C08271
:10337300C08379001238ED126DC4C082C0839003FC
:10338300DF125B42D083D082C3E09CA3E09D500C4C
:10339300127498FAA3E01233A26001090248F1FB08
:1033A300EA75F00BA4FAA8F075F00BEBA428FB90D8
:1033B30003E1E02AF8A3E03B8882F583E0540F227F
:1033C30074F7120B3E89081238ED123993ACF0757D
:1033D300F00BE9A42CF99003E1E028FEA3E039FF08
:1033E3007401650860067402650870208A828B8305
:1033F30012397F124E1174026508701B12383E1287
:1034030039C670138E828F83E4F0800BEA2403FCA9
:10341300EB12396112396DEEFAEFFB12186F024CA1
:103423003874F4120B3E127DBF79008E828F83E0D5
:103433006076890A890B8065E50A75F00BA4FAA802
:10344300F075F00BE50B1233AF7046E50A75F00B20
:10345300A4F8AAF075F00BE50B1239A58E828F83C1
:10346300E0850882850983123A8785088285098366
:10347300A3124E11EE2403FCEF12396A124AAF1263
:10348300683EAA08AB0912186F79019003DF126234
:103493004BE50A2401F50AE50B3400F50B12384617
:1034A300E50A9AE50B9B4090024FBD74F5120B3E63
:1034B300EAFEEBFF740B1214A8124AB4750A01EC6E
:1034C3004D602BEC127DDBED126DC4124E097901B8
:1034D30012187BE5084509606F850882850983A377
:1034E300127DC97902AA08AB0912187B805AE50834
:1034F3004509602B126DC812548A124AB01239B0B2
:10350300700CEEFAEFFB121881E9F50A80CBEE247A
:1035130003FA1238E870317903EEFAEFFB80CA8EB2
:10352300828F83A3E064FE7003A3E0F4700BEE24A8
:10353300030A0A0A1238E8700CEEFAEFFB1218813C
:10354300E9F50A8003750A00A90A7F03020E4A748B
:10355300F7120B3E9003DF124D78EA4B602FEA75AA
:10356300F00BA4FAA8F075F00BEBA428FBEAFEEB32
:10357300FF12226B9003E1124D789003E1126090E9
:103583006012EEFCEFFD79001221CF80079003E17A
:10359300E4F0A3F0024C3874F6120B3EE4F508F5A0
:1035A30009780812117A9003DF125B42EC75F00B75
:1035B300A4FCA8F075F00BEDA428FD7A237B001280
:1035C30022EF74021211A8E9FE6003121899026F28
:1035D300D774F7120B3E7E007F00800AEEFAEFFBF2
:1035E30012185D1244AF12365C40F1024C3874F786
:1035F300120B3E7E007F0080121238CBFCA3E03911
:10360300FDEEFAEFFB1218691244AF12365C40E983
:10361300024C3874F7120B3E7E007F008033EEF8C5
:10362300EFF9E875F00BA4F8AAF075F00BE9A42AFA
:10363300F99003E112655988828983E0A2E7500E6D
:10364300C2E7F0AC82AD83EEFAEFFB1218631244CB
:10365300AF12365C40C8024C389003DF1257FAC3EE
:10366300EE98EF9922C082C083EC4D6005122B7156
:1036730080097C087D0079001221CF0248F174F69D
:10368300120B3E7900EA4B60187800880812710B20
:10369300EB12749460047901780808E8C394084035
:1036A300EA024E1C74F7120B3E74F3121226ECFE60
:1036B300EDFF851882851983E4F0041214A8EAF05B
:1036C300A3EB1265C474031214A8AC82AD83EEFAA3
:1036D300EFFB1218ABEEFAEFFB1218B1024C337486
:1036E300F7120B3E74F3121226ECFEEDFF851882DF
:1036F300851983E4F0EAFCEBFD74031214A8123A73
:103703008074011214A8124E058E828F83124E11FB
:1037130074FE68700374FF696004790180027900A4
:10372300024C3374F7120B3EEAFEEBFF1237847040
:103733001412378F8E828F83E0F4F88A828B83E0B2
:1037430058F012186FA908024C3874F7120B3EEAAE
:10375300FEEBFF7508008E828F83E06022123784B0
:10376300701D12378F8A828B83E08F838E82F8E0FD
:1037730058700CE0F88A828B83E048F012186F804F
:10378300C4121875E9F5087401650822127DD41274
:1037930039971238D9FAA3E039FB2274F4120B3E9D
:1037A3008A088B097C007D0012383E12396D12386D
:1037B300FE127DC67900850882850983A3E064FE35
:1037C3007003A3E0F460717E007F008062EEFAEF85
:1037D3001233A26057EEFAEFFBEA75F00BA4FAA8D6
:1037E300F075F00BEBA428FB9003E1E02AF50AA3A4
:1037F300E03BF50B850882850983A312650A850AD8
:1038030082850B83A3E06A7003A3E06B701EE50A55
:103813002403FAE50B1238E9700AE50A2403FCE5F0
:103823000B12396A1238F27901126DDA1244AF12AF
:103833003846EE9AEF9B4095024FBDEA24030A0AED
:103843000AEB229003DF1269B1C32274F3120B3E19
:103853008A088B098A828B83A3127DC91238ED12E1
:103863007DC6750C0012383E1238E970547E007F15
:103873000080491238CBFAA3E0398A82F583E054F9
:103883000F60361238CBF50AA3E039F50BE50A24AD
:1038930003FCE50B1239743400FB122B6BE9640152
:1038A3007017850A82850B83A3126A72A3124E11C5
:1038B3001238F2750C01126DDA1244AF12365C4005
:1038C300B2A90C7F05020E4AEEF8EFF9E875F00B8A
:1038D300A4F81238D922AAF075F00BE9A42AF990BA
:1038E30003E1E02822EF1239C022127DDAEB221223
:1038F30038FE126DD5EEF0A3EFF022E508127DDB62
:10390300E5092274F5120B3EEAFEEBFF8E828F83EC
:10391300A3127DC97C007D00EE24030A0A0AEF127C
:10392300396DEEFAEFFB121875E9F50A7401650AB1
:103933007029127DD4123993AAF075F00BE912396C
:10394300A5850882F58312397F1239B0700DE50819
:103953002403FCE50912396112396D02354B340039
:10396300FDEE2403FAEF221239743400FB1218AB74
:10397300223400FDE5082403FAE50922A312398461
:103983002212398822E0F8A3E0F98E828F83A322E2
:10399300123997223400F5831257FEE875F00BA411
:1039A300F8221238DFF508A3E039F50922E8F0A37D
:1039B300E9F0E5082403FAE5091239C0221239C6F1
:1039C3006401223400FB1218B1E92274F3120B3E96
:1039D30074E6121226127DBF750C01750800750975
:1039E30000750A00750B00851882851983E4F0EED3
:1039F3002403FCEF3400FD74031214A8123A80E987
:103A030064017023740B1214A8124E09740112146A
:103A1300A812650E7003A3E06960518518828519A9
:103A230083858208858309740D1214A8E4123A87EA
:103A3300740E1214A8124E11740D1214A8AA82AB9C
:103A4300831218CFE96401700B740D1214A88582D8
:103A53000A85830B780A12117AAC08AD09EEFAEFE6
:103A6300FB12188774021211A8E9F50CEEFAEFFBAA
:103A73001218C9A90C741A1211A80238C6123D53A0
:103A83001218D522124D731257FA22C082C08378BE
:103A93000079008003123B7E123846E89AE99B5076
:103AA30029E8FAE9FBEA75F00BA4FAACF075F00B20
:103AB300EBA42CFB9003E1E02AFCA3E03B8C82F512
:103AC30083E0540F70CF7900800279010248F1C07E
:103AD30082C0839032A0125850EC75F012A4FCA857
:103AE300F075F012EDA428FD79FF7A367B0C1221D4
:103AF300CF0248F174F7120B3EE9FEEAFF7A007B2E
:103B030000780079008028E8FCE9FDEC75F012A448
:103B1300FC85F00875F012EDA42508123F93C39EAF
:103B2300400AE0FCEFC39C4003124384123B7E1225
:103B33003F8740D3024C38C082C08378007900802D
:103B430003123B7E123B72501F123F97F470F2E850
:103B530075F012A4F8AAF075F012E9A42AF97436E4
:103B630028FA740C39FB80047A007B000248F19038
:103B730032A012425CC3E89AE99B22E8240108E9D7
:103B83003400F92274F0120B3E74F31212268A0ADF
:103B93008B0B8C0C8D0D8908EC450D6016AA0CABB4
:103BA3000D1219238A0E8B0FAE0EAF0FEE4F60036B
:103BB300023C451218F98A0E8B0FA80EA90FE8FED6
:103BC300E9FFE849607C9032AE123CA7602274039F
:103BD300650860067404650870167A047903121880
:103BE300F39032AE123CBE40077A007B00023CA445
:103BF3009032AC123CA7601B740165086006740226
:103C03006508700F7A0279011218F39032AC123CF6
:103C1300BE50D68518828519837401F01214A81238
:103C2300683EAC0CAD0D74031214A8123D4C740B1A
:103C33001214A8124ABC1251F3E4126826121E6928
:103C43008004EE4F604A780074FF2508C394045043
:103C53000278048E828F8312683E8E828F83A3A3A1
:103C6300A3A3E508F0E88E828F83A3A3A3A3A312E3
:103C7300684612086A1242798E828F83A3A3A3A394
:103C8300A3A3A3F012427012147D126DBE1214711D
:103C9300123CAC40059011B2E4F0121D43EEFAEF72
:103CA300FB02580412696049227A0479001218F35E
:103CB3009032A012747AEA98EB9922123CD775835A
:103CC300327582A0E493C398F8A3E49399F9C3EA05
:103CD30098EB9922E493F8740193F92274F2120B8E
:103CE3003E74F31212268A088B09ECFEEDFF750A67
:103CF30000EEFAEFFB1219238A0C8B0DA80CA90D09
:103D0300E849603E88828983E065087004A3E06522
:103D130009602F88828983A3A3A3A3E0C3940550DA
:103D230021126C6C8518828519837401F01214A812
:103D3300126C70EEFCEFFD74031214A8123D4C7567
:103D43000A01A90A740D026302123D531218E122FB
:103D5300AA82AB831218AB851882851983AA82AB1A
:103D6300832274F6120B3E123DA1600FA3A3A3A3FB
:103D7300E014C394045004790180027900024E1CBC
:103D830074F6120B3E123DA1600FA3A3A3A3E0148C
:103D9300C394025004790180027900024E1C121967
:103DA3001D8A828B83E58245832274F6120B3E12B1
:103DB3003DA1600BA3A3A3A3E07004790180027962
:103DC30000024E1CC082C083EAFCEBFD7A007B003C
:103DD3000248EEC082C0837C007D000248EE74F48A
:103DE300120B3E74F3121226EAFEEBFF8C0A8D0BC4
:103DF300C3EC94F8ED94FF4007EE4F7003023E9A34
:103E0300750800750900802E851882851983740151
:103E1300F01244D71214A81244E560137403121469
:103E2300A8AC82AD83EEFAEFFB122B6BE97049E588
:103E33000824011240339032A0E4126968E508981F
:103E4300E509995052E50875F012A4F8AAF075F047
:103E530012E509A42AF91274AD60D4EE4F70A97467
:103E6300FF650A700474FF650B60C41244C7650ADA
:103E73007004A3E0650B70B7E50875F012A4F508AC
:103E8300A8F075F012E509A428F50974362508FA97
:103E9300740C3509FB80047A007B00024FB874F47C
:103EA300120B3E74F31212267508001219238A0AA4
:103EB3008B0BAE0AAF0BEE4F602A851882851983F0
:103EC3007401124D6DF8A3E0F9740B1214A8124E8D
:103ED300961218C37C127D0079FFEEFAEFFB1221D4
:103EE300CF750801123CAC50099011B27401F01265
:103EF3001D43A908024FB874F7120B3EE9FE74FE86
:103F03006A700374FF6B7800790070058052123B6E
:103F13007E123F87504AE8FCE9FDEC75F012A4FCE1
:103F2300AFF075F012EDA42F123F93F460E0E8FCBC
:103F3300E9FDEC75F012A4FC75F012EDA42FFD74ED
:103F4300362CF582740C3DF583E06A7003A3E06BB5
:103F530070BC8009123F9714C394044017123B7E30
:103F6300123B725018EE70EC123F9764016005E04B
:103F7300640370E91244B8FAA3E0FB80047AFE7B81
:103F8300FF024C389032A0125854C3E89CE99D229A
:103F93001243B922E8FAE9FBEA75F012A4FAACF08D
:103FA30075F012EBA42CFB743A2AF582740C3BF5E2
:103FB30083E0221219350248F1C082C0837901805F
:103FC300F274F0120B3E8A0A8B0B7A0479011218F1
:103FD300F38A0C8B0DEA450D603EEAC333FAEB33EB
:103FE300FB12226B8A088B09AE08AF09EE4F6023E0
:103FF3007AFE7BFF12193B74FE6A700374FF6B60D9
:104003001B850882850983124D78E5082402124036
:104013003380E1750C0080047E007F00850A828571
:104023000B83E50CF0EEFAEFFB025809E5082407D1
:10403300F508E5093400F50922C082C0837A007BC4
:1040430000800312438412407F502A1243A3F4607A
:10405300F2EAFCEBFDEC75F012A4FC75F012EDA492
:1040630028FD743B2CF582740C3DF583E05960D335
:1040730012438D80047A007B000248F19032A01233
:104083005854C3EA9CEB9D2274F6120B3EE4F508E8
:10409300F509780812117A9032A0E493F5087401B7
:1040A30093F509740378081213A31240C21222EF86
:1040B30074021211A8E9FE6003121953026FD7E5C7
:1040C300082402FCE5093400FD7A227B002274F601
:1040D300120B3E74FE121226851882851983E4F0B2
:1040E300A3124DF7858208858309780812117A7522
:1040F3000802750900780812117A7C007D007A2283
:104103007B001222F574041211A87402024E197472
:10411300F1120B3E74DF12122685188285198385EE
:104123008208858309780812117A750802750900D7
:10413300780812117A7C007D007A227B001222FB20
:1041430074041211A8E9600302424A9032A0124299
:104153005C124DFFC3EA98EB99500302424A75087B
:104163000002423F740F1214A885820A85830B78DC
:104173000A12117A750A08750B00780A12117A85EA
:10418300080A7403780A1213A3E50A2402FCE50B58
:104193001240C91222FB74041211A8E960030242FF
:1041A3003D74111214A8E0F47003A3E0F470030249
:1041B300423D74021214A87401F074111214A8126F
:1041C3004E05740D1214A8124E1174021214A8AAEB
:1041D30082AB831218DBE96061900420125B4274A6
:1041E3000F1214A812650A121E69E50875F012A4CD
:1041F300F8A9F0743628FE740C39FF740F1214A852
:10420300A982AA83890C8A0D750E00780C12117687
:104213007C081242641211A812684B12086A1242F7
:104223007912427012147D126DBE121471123CACDD
:1042330040059011B2E4F0121D43050885080A12E7
:10424300746E5003024167851882851983E0F974FF
:10425300211211A87F07020E4AE493FA740193FB1B
:10426300227D00EEFAEFFB1221C3740322126DCFFD
:10427300E4F090848E22E88E828F83A3A3A3A3A36A
:10428300A3A3A312429B740112429BA3F0EE24103A
:10429300126DD2E4F0A3F0221251FFA3A3A3227460
:1042A300F4120B3E74FE121226851882851983E4DC
:1042B300F0A3F0FE8067EEF8EFF9E875F012A4F8CA
:1042C300AAF075F012E9A42AF9743628F50A740CD9
:1042D30039F50B780A12117A750808750900780800
:1042E30012117A8E088F09740378081213A31240EF
:1042F300C21222F574041211A8850A82850B83A3C6
:10430300A3A3A3E0F4600F851882851983E0240139
:10431300F0A3E03400F0EE24010EEF3400FF9032FE
:10432300A0127A5440908518828519838582088566
:104333008309780812117A75080275090078081242
:10434300117A7C007D007A227B001222F57404121C
:1043530011A87402024FBAC082C0837A007B008026
:10436300041912438412407F50101243A3C39405CF
:1043730050F0E970EC12438D80047A007B00024810
:10438300F1EA24010AEB3400FB22EA75F012A4FAE5
:1043930075F012EBA428FB74362AFA740C3BFB224B
:1043A300EAFCEBFDEC75F012A4FCA8F075F012ED3D
:1043B300A4281243B922FD743A2CF582740C3DF5FE
:1043C30083E02274F7120B3E74F31212267E007FF1
:1043D3000002446BE50875F017A4F8A9F012770EF4
:1043E300FAA3E0FBEEF8EFF9E875F012A4F8ACF0ED
:1043F30075F012E9A42C1244C66A7003A3E06B6043
:104403003FE50875F017A4F8AAF0EA12770DF8A3B0
:10441300E0F974011214A8E0687003A3E069602056
:10442300E50875F017A4F8EAF974B228FC740D399D
:10443300FD74031214A8AA82AB83122B6BE96014D8
:10444300E50875F017A4F8A9F074B028FA740D39CB
:10445300FB121E7505089032B5E493F8E508C3987E
:1044630050030243D71244AF9032A0127A5450390A
:10447300EEF8EFF91244B8F47003A3E0F460E685B4
:1044830018828519837401F0EEF8EFF9E875F012DC
:10449300A4F875F012E9A42AF91244D71214A81249
:1044A30044E560C175080080AD024C33EE24010E73
:1044B300EF3400FF22E875F012A4F8AAF075F012A9
:1044C300E9A42AF91244CB22743628F582740C39F4
:1044D300F583E022743828F582740C391257F87486
:1044E3000B22E8F0A3E9124E9E1218DBE922C082E8
:1044F300C0839003E874F9F0A3741BF09003EA748B
:10450300F3F0A3741BF09003EE74FBF0A37419F0A3
:104513000248F1C082C0839003EC74EDF0A3741BD6
:10452300F00248F174F7120B3EEAFEEBFF9004220F
:10453300E06408601BE0640460168E828F83E0549D
:104543000364017048124AAF1252FFE06406703DE3
:104553008E828F83A3A3E064FE7003A3E0F4602D37
:104563008E828F83A3A3124E05900413E068700319
:10457300A3E069700BEE2415F582EF1274946008C2
:10458300121CB9E9F5088008121CBF80F67508C231
:10459300EEFAEFFB12227102374874F4120B3E8AD3
:1045A300088B098A828B83E0F8A3E0FAE82AFAE40D
:1045B3003400FB12226B8A0A8B0BAE0AAF0BEE4F51
:1045C3006063850882850983E0FC7D007900122100
:1045D300CF8E828F83A3A3127DC9121CFB8E828F81
:1045E30083A3A3A3A3124D78850882850983E0F8EA
:1045F300EE28F8EF3400124E0D850882850983A357
:10460300E0C0E0EE240D126DC1D0E0F0121D0DEEFE
:10461300240E126DC1E912646BE0C0E0EE241112A6
:104623006DC1D0E0F0EEFAEFFB024FBD74F4120B54
:104633003E74EB1212268A088B098C0A8D0BE9FE55
:10464300900422E064046005E06408700479C28089
:104653002EA37808121419EE90042912492F12146C
:104663001974051214A8E9F074041214A87401F063
:1046730074071214A8E4F0900422740212486E74B2
:1046830015024FBA74F6120B3E74EB121226EAFEB1
:10469300EBFF12608D600302472B7A077B00122227
:1046A3006B9003E4124D7812608D60788E828F8355
:1046B30012147D9003E5125302121471127C8DC003
:1046C300E0124737D0E0F0EE2405FAEF3400FB8A1E
:1046D300088B098A82F583E0C0E0124732D0E012EA
:1046E3004FB4E0C0E0124732A3D0E0124DEC1214F5
:1046F3007D85188285198312147188828983E0C0AD
:10470300E074051214A8D0E0F0850882850983E0DF
:10471300C0E074041214A8D0E0F074071214A812B5
:10472300486D80067910800279017415024E1912C2
:104733004737A3229003E4E0FAA3E0F5838A82A338
:10474300A3A3A322C082C08312608D600D9003E4F3
:1047530012699F9003E4E4F0A3F0121C23121E15C8
:104763000248F174F0120B3E74EB121226ECFEEDCC
:10477300FF890874251214A8780C121446742912A0
:1047830014A8E0F9742A1214A8E0FC742B1214A8DC
:10479300E0FD740F697005740F6C6012901227E0CE
:1047A3006402700579C1024868E9C39C40F690042D
:1047B30023780C121419E508900429F0E9900427D2
:1047C300F0ECA3F0ED90042AF074FF6A700374FF19
:1047D3006B701D901234E0F47003A3E0F4700512C3
:1047E30021DB800C901234124C10E8F0A3E980070F
:1047F300900420EAF0A3EBF0EE4F6017EEFAEFFB24
:10480300121ED5E96401700BEEFCEFFD7A347B04D4
:10481300122B71900413E4F0A3F0900416F0A3F0AC
:10482300900433F0901227E0640270089004277418
:104833000FF0A3F09004227405F0141214A8E4F00E
:1048430090042312147D85188285198312147190A4
:104853000429E0C0E074051214A8D0E0F074071234
:1048630014A812486D7415025806E4124E9E122BBA
:10487300A12274F7120B3EE99003E3F07A807B00E8
:1048830090046DE0F912233D1219AD7900024C3802
:10489300C082C0839003E3E070031225891219AD2F
:1048A300804CC082C0839003E3E09011B17004E4B4
:1048B300F0802D7401F09003E3E0F460237C41E089
:1048C300C394415002E0FCECF8E0C398F0EC75F0BF
:1048D300E8A4CCA8F075F003A428FD7A8012585CF4
:1048E3007AB17B117941122B898003121929D08364
:1048F300D08202113C74F4120B3E74EB1212268A1E
:10490300088B098C0A8D0B900422740112492F1213
:10491300141974051214A8E9F074041214A874038A
:10492300F074071214A812486D024682124DF778EC
:10493300082274F7120B3E7C011219BF024C387423
:10494300F2120B3E74FC121226E985188285198334
:10495300F0EAFEEBFF8C0A900420125B42121C1754
:104963008A088B09EA4509700579CA024AAA8A822C
:104973008B83A3A3A3A3A3A3A3E064FE7003A3E079
:10498300F4700579C3024AAA90042012650A121E24
:104993007B850882850983A3A3A3A3A3A3A3A3A3BE
:1049A300A3E004900433124C1774021214A8740287
:1049B300F0141214A8AA82AB83121D7F8A0C8B0DEC
:1049C300AE0CAF0DEE4F7003024AA1124AAF125460
:1049D3007E7406F0A3A882A98390040D1269DC12E9
:1049E30057D7F0EE2413126DC1740112681E744080
:1049F300F0A3E4126464A3A3124ABC124E11EE2482
:104A030011126DC1E50AF0EEFAEFFB12197DE9FE12
:104A13006003024AA39004227409F012402FAA08EB
:104A2300FB794B122B89850882850983124C091265
:104A33004E11900415E0F8851882851983E06860AB
:104A43000CE0900415124E9A79E1122B89901214FE
:104A5300124E05901216E0687003A3E069601A9085
:104A630003E6124E1190121612650A121D259012BA
:104A730016125B427A0112585C7A007B0490046D33
:104A8300E0F912233D901216124AB4740278081208
:104A930013A3AC08AD09FA7B0412585E80027E10A2
:104AA300900841E4F0EEF97404026302EE126DD053
:104AB30022E0F508A3E0F50922124AC02212398840
:104AC300A32274F5120B3E74E21212268518828516
:104AD3001983ECF0A3EDF0EAFEEBFF8908742912C9
:104AE30014A8E0F509742C1214A8E0F50A90042226
:104AF300E064046005E06408700579C2024C017447
:104B03002A1214A8E064FE7003A3E0F4700579C3CD
:104B1300024C019004227403124E9A7950122B898D
:104B2300742A1214A8AA82AB83794B122B89851895
:104B330082851983124C10124E11E508900415F06A
:104B4300742A1214A8124C09124E11E50990040D8F
:104B5300124C1774CE55094480C0E074121214A885
:104B6300D0E0F0900963E0600464017008740125EB
:104B73000A900433F0740F1214A87402F0742A120A
:104B830014A8124E0574071214A8E8F0A3E9124DF5
:104B93007E74101214A8124E1174051214A8E5089D
:104BA300F0741B1214A8E4F0900428740FF07A2810
:104BB3007B047954122B89900427740FF07A277B96
:104BC300047947122B89900427E0C3940F50237470
:104BD300051214A8E0C0E074021214A8D0E0F07427
:104BE300041214A87401F0041214A8AA82AB83124D
:104BF3002BAD74051214A8AA82AB83122B8F741EDB
:104C03001211A802354D1257FA900416221257FAC0
:104C130090042022F0EEFCEFFD7A347B04122B711A
:104C23002274F7120B3EEB90042AF0121C05800548
:104C3300740D1211A87F01020E4A74F7120B3E7411
:104C4300E9121226EAFEEBFF7508008E828F83A31A
:104C5300A3A3E0C0E074061214A8D0E0124D6DC007
:104C6300E074081214A8D0E0F074091214A87401B7
:104C7300124DE7F8A3E0F9E849600D8E828F8312A5
:104C8300650A1218B1E9704674071214A8E4F01209
:104C93001CF574041214A8124D78900422E06404E5
:104CA300700E121D0174021214A8EAF0A3EB800B1C
:104CB30074021214A874FDF0A374FFF074021214AA
:104CC300A8AA82AB83121D61E9F508024D6690091B
:104CD30063E0600764016003024D668518828519ED
:104CE30083AC82AD838E828F8312650A1218BD8EC8
:104CF300828F83A3A3A3A3E0702474071214A87460
:104D030001124D7E74021214A8124E118E828F83EB
:104D1300124E0574041214A8E8F0A3E9809D124D05
:104D2300FF740A1214A8124E1174141214A87401F9
:104D3300127301E0C0E074151214A8D0E0F07416E9
:104D43001214A8E4124DE7FCA3E0FD740C1214A89E
:104D5300AA82AB83122B71740A1214A8AA82AB83A2
:104D6300122475A9087417024C35124D73A3E0225F
:104D7300124DECA322EAF0A3EBF022124DF2F8A3BA
:104D8300E0F92274F7120B3E74F8121226EAFEEBD6
:104D9300FF7900900422E064087044851882851925
:104DA3008374FDF0A374FFF0121CF574021214A8AF
:104DB300124D7874051214A8E4124D73E0C0E07428
:104DC300041214A8D0E0124DE7C0E074061214A830
:104DD300D0E0F074071214A8E4124E9A121D617405
:104DE30008024C35124DECE022F08E828F832212A2
:104DF3004DF7E022F0851882851983228518828574
:104E030019831257FA22E0F8A3E0F9126DCFE8F004
:104E1300A3E9F02274041211A87F02020E4AC08291
:104E2300C0839003F47491F0A3741AF090049A74FD
:104E3300BBF0A3741DF09003F874C7F0A3741AF0C9
:104E43009003FA7491F0A3741AF09003FC74CDF0FC
:104E5300A3741AF00248F174F4120B3E74F912129F
:104E6300268A088B098C0A8D0B851882851983780D
:104E73000812141974041214A8E9F074051214A882
:104E8300E4F074061214A8E4124E9A12198F7407F0
:104E9300024FBAE8F0A3E9124E9E22124DF7AA82FE
:104EA300AB832274F4120B3E8A088B098A828B83AC
:104EB300126DDDEE4F7003024FB29003B912609092
:104EC30060158A828B83A3A3E0F9EEFAEFFB9003CC
:104ED300BA125302122E288E828F83A3A3A3A3A3F5
:104EE300A3A3A3A3E0640270748E828F83A3A3A3FE
:104EF300A3A3A3E054027003024F848508828509AB
:104F030083A3A3E064E960798E828F83A3A3A3A321
:104F1300A3A3A3A3A3A3E0701490122AE0048E8298
:104F23008F83A3A3A3A3A3A3A3A3A3A3F08E828F7F
:104F330083A3A3A3A3A3A3A3A3A3A3E014124FB484
:104F4300A3A3A37404F090122B126818E8F0A3E94A
:104F53001278F18B0BEA450B70031272CF8E828F9E
:104F630083A3A3A3A3A3A3A3A3A3E0640260128EBA
:104F7300828F83A3A3A3A3A3A3A3A3A3E064067025
:104F83002E8E828F83A3A3A3A3A3A3E0A2E0501F2B
:104F9300850882850983A3A3E0F9EEFAEFFB1217D4
:104FA300618E828F83A3A3A3A3A3A3E054FEF08007
:104FB300091251FB22740D1211A87F04020E4A74C8
:104FC300EC120B3E74DD121226EAFEEBFF8C088D09
:104FD3000974371214A8780C121446750A00740564
:104FE3001214A8AC82AD8312180374121214A8E031
:104FF300700874151214A8E0602074051214A8E058
:10500300A2E6501E8E828F83A3A3A3A3A3A3A3A36D
:10501300A312650A121D97E960087903122B59023E
:1050230051E174051214A8E0540C64047005750B67
:10503300018003750B00E0A2E55035750A01E50B0D
:10504300A2E0402C121CFB8A108B11A810A911128C
:105053004AAFE0687003A3E069601574051214A8F1
:10506300127DD0126506121737E96004790480AC0B
:1050730074051214A8E0A2E6502274061214A8E0E4
:105083005403701874051214A8E0540C640C600CDB
:10509300E0540C64086005751001800375100074FA
:1050A300051214A8E05403F8740268700C127DD042
:1050B3001265061218150251E1740168703AE51081
:1050C300A2E050031251E974051214A8A882A9831F
:1050D30074031214A8E8F0A3E91257EE8518828529
:1050E30019831251F3E0C0E074021214A8D0E01245
:1050F3004E9A12164D0251E1E860030251E1900409
:105103000AE0640170108E828F83A3A3A3A3A3A3D9
:10511300E0700302506F74221214A874021257EE47
:10512300741A1214A8124E11E510A2E05008740567
:105133001214A81251E9E50BA2E0506AEE240FF510
:1051430082EF127494C0E074171214A8D0E0F090A8
:1051530003BB12609070030251E1121CFB8A128B95
:1051630013A812A913741A1214A8E0687003A3E019
:1051730069706B780C121172780A12117E7808121A
:10518300117AA910740C1214A8AC82AD8374211285
:1051930014A8AA82AB839003BB1252FF122E287469
:1051A300071211A88038780C121172780A12117E36
:1051B300780812117A900420120F4CEE2412F58213
:1051C300EF1271C274231214A8AC82AD83740E1251
:1051D30014A8AA82AB8312176D74091211A8742341
:1051E3001211A80278BC127DD01269AD12180922DF
:1051F300E8F0A3E91251FB221251FF22F08E828FB5
:1052030083A3A3A3A3A3A32274F7120B3E12243FE9
:10521300024C3874F7120B3E12244B024C3874F7CD
:10522300120B3E122457024C38C082C08312245101
:105233000248F174F7120B3E12245D024C3874F7E6
:10524300120B3E74091214A8E0F508780812117EB7
:105253001224697401024C35C082C0831224750282
:1052630048F1C082C08312247B0248F174F7120B09
:105273003E122481024C3874F7120B3E12248D0225
:105283004C3874F7120B3EEAFEEBFF890874016594
:105293000870147900121B099032C0E493FC790062
:1052A300EEFAEFFB121A7F024C3874F4120B3E74C1
:1052B300F9121226E9FE8A088B098C0A8D0B7413E6
:1052C3001214A812650A90088E1260906027EE856A
:1052D3001882851983F074011214A878081214191E
:1052E300EAF8EBF974051214A8124E9690088E1280
:1052F30052FF122E28024E91FB9003F6E0F8A3E032
:10530300F583888222C082C0831224BD0248F174CF
:10531300F7120B3E9011B4E0F97E00800B127480FB
:10532300540D64017001190E12550C5003E970ED10
:10533300024C3874F7120B3E9011B5E0F97E0080F1
:105343000B127480548D64817001190E12550C5028
:1053530003E970ED024C3874F2120B3E890BE975C8
:10536300F006A4240CF508E5F01240378A0CE50892
:10537300250CFAE5093400FB12226B8A0C8B0DAE67
:105383000CAF0DEE4F6027AC08AD0979001221CFA9
:10539300124AAFE50BF0EE2508F8EF3509F98E82D6
:1053A3008F83A3A3A3A3A3A3A3A3A3124E11EEFAD4
:1053B300EFFB02630574F6120B3EEAFEEBFF121AD3
:1053C3005B9011B3E0F8E9C39840099003F01265CC
:1053D3000A121A61EE2402F8EF126B229003F21202
:1053E30069DC9003F2E004F0EEFAEFFB121A678532
:1053F3000882850983E0026FD8C082C08379009058
:1054030003F080010912650A8A828B83E582458352
:1054130070F20248F174F7120B3EEAFEEBFFEE4F17
:1054230060569003F0126090604E888289837A0000
:105433007B00EE65827003EF6583600FAA82AB8306
:1054430012547EE5824583602F80E79003F0125467
:105453008A687002EF698E828F837008124E0590FE
:1054630003F080031278CE124E11EEFAEFFB121600
:105473007DEEFAEFFB122271024C38125482221293
:1054830057FE88828983221257FAEE22C082C08394
:105493009003F0800488828983126090600B888275
:1054A3008983125B42EC4D70EC8A828B83E4F0A318
:1054B300F0E84960068882898380039003F0124DE7
:1054C300780248F174F7120B3E9003F080048A824D
:1054D3008B831255074B60257E0080010E12550CFD
:1054E30050ECEE75F006A4FCADF0EA2CFCEB3DFDB0
:1054F300EC2410F582ED12555C70E180047A007B98
:1055030000024C381269B1EA22125565EEC39822A3
:1055130074F7120B3E7D0080010D125561EDC398A7
:105523005034ED75F006A4FEA8F0E8FFEA2EFEEB7A
:105533003FFFEE2410F582EF12555C70DCED75F041
:1055430006A4FEE8FFEA2EFAEB3FFBEA2411F582FC
:10555300EB1274944CF0024C381274A06922125569
:105563006522127DDAEB3400F583E0F82274F6123B
:105573000B3E121B817A007B008025EAF8EBF9E8E9
:1055830075F006A4F8ACF075F006E9A42C12698650
:10559300127C9BA3E4126A7CF0A3127CA1127E18F6
:1055A3009032B2123CB640D37A007B00801C8A084A
:1055B3008B09740378081213A3126432A374FEF0E8
:1055C300A30412685CA3E4127E189032B412560F3F
:1055D30040DC7A007B00801D8A088B0974037808FD
:1055E3001213A374D812710C741012795374FEF051
:1055F300A304127E189032BA12560F40DB9032C2C7
:10560300E4939003FEF0125619024E1CE493F8C380
:10561300EA98EB9400227CE87D037A107B009004E7
:105623006DE0F91223372274F0120B3E74F5121257
:10563300268A088B09890A8C0BE9A2E050147508A5
:10564300FC7509FFA2E15005D2E40256ECD2E30255
:1056530056EC1262F17003A3E069700579000257FA
:10566300B9AC0A7902AA08AB09121B5DE960EDE542
:105673000AF50C780C12117E79027CFE7DFFAA08D4
:10568300AB0912606C1211A8E960030257B7E50A6F
:10569300C2E5F50A900460E07051E50AA2E6404BCA
:1056A30074031214A8AC82AD83AA08AB091218B70D
:1056B300E9703212598D8A0C8B0DA80CA90DE8FEE6
:1056C300E9FFE8496025EE24020A0AEF1239C660B1
:1056D3001AEE2402FCEF3400FD74031214A8AA820C
:1056E300AB83122B71E50AD2E5F50A9003F3E0F5DB
:1056F3000C900413E0F50EA3E0F50F780E12117A67
:105703007D017C009003F3E0F9AA0EAB0F121B1589
:1057130074021211A8E9F89003F3E004F0E86003BF
:105723000257B7E50AA2E55004740E80027406C05E
:10573300E074011214A8D0E0126DEE8A0E8B0FAE46
:105743000EAF0FEE4F60691257D71257EE8882895A
:10575300837401F07478550AA3127DE0E50C127D81
:10576300E0A3E508F0E5091257C6E4F0E50AA2E56F
:10577300500F74031214A8AC82AD83E824061257A9
:10578300BD8E828F83A3A374FDF0A374FFF0E50B9A
:1057930060159032C1E493F8E50BC3985009EE24E9
:1057A30013126DC1E50BF0EEFAEFFB12197D8006C3
:1057B3007910800279C7740B8049FAE93400FB122F
:1057C3002B712288828983A3A3A3A31257D2221207
:1057D3006B55A322EE2417126DD27401F0121CF53F
:1057E300EE241A126DD2EAF0A3EB22F0127DD43428
:1057F300001257F822F5831257FE22E0F8A3E0F9CE
:1058030022740D1211A87F08020E4A74F6120B3E81
:105813007A007B101272DC600890047F7401F080C0
:1058230029900959E064019012287006E0FC79017F
:105833008004E0FC79037A007B00121A7F9032A87F
:105843001258507A007B1012585E024E1C125854A4
:1058530022E493FC740193FD227B0090046DE0F934
:105863001223312274EC120B3E8A088B098C0C8DA7
:105873000D890E74141214A812624B74161214A814
:10588300E0F510A3E0F511121D97E960077AFF7B9D
:10589300FF02598A901227E06402600302597D795E
:1058A30000AA08AB09121B63A90E121B578A128B9D
:1058B30013AE12AF13EE4F70030259658E828F83BE
:1058C300A3A3A3A3A3E064018E828F83A3A3706920
:1058D30012650A8E828F83A3A3A3A3A3A3E0541804
:1058E30060439032BFE4938E828F83A3A3A3A3F07C
:1058F300EA650C7003EB650D6014EA650A7003EB4F
:10590300650B600AEA65107003EB6511701F781070
:1059130012117AAC0AAD0BAA0CAB0D121E937402D2
:105923001211A880089004121272C6A3F074FE6AC2
:10593300700374FF6B601D804EA3A3A3E064036038
:10594300298E828F83A3A3A3A3A3E0640470057AA3
:10595300FE0258928E828F83A3A3A3A3A3E06402C3
:10596300700890045FE06402701012598D8B0BEA8B
:10597300450B6006AA08AB09800DAA08AB09900382
:10598300F41252FF122E280278BC90042012607287
:10599300121E572274F7120B3EEAFEEBFF12190B8D
:1059A300E9700AEEFAEFFB121917E96006EEFAEF57
:1059B300FB80047AFE7BFF024C3874F0120B3E8AA4
:1059C3000A8B0B8C0E8D0F8909750800121D97E940
:1059D30079006003025B34AA0AAB0B121B63A909AB
:1059E300121B578A0C8B0DAE0CAF0DEE4F60198E48
:1059F300828F83A3A3A3A3A3E06402705590045FE3
:105A0300E064027003025B32AA0AAB0B9003FA1242
:105A130052FF122E2812191D8A0C8B0DA80CA90DEA
:105A2300E8497003025B3288828983A3A3A3A3A3FB
:105A3300E0A2E04003025B32750C01A2E1506879F9
:105A430001AC0AAD0BAA0EAB0F121AAFE9706402D8
:105A53005B328E828F83A3A3A3A3A3E064037005A9
:105A6300750C0280528E828F83A3A3A3A3A3E06449
:105A7300016003025B32900420125B428E828F83AB
:105A8300125E978A0C8B0DA80CA90DE84960D19082
:105A930032C7E493FA88828983E0C39A50C2A3E0B1
:105AA3006003025B3280B988828983A3A3A3A3A383
:105AB300D2E1F0EE4F603A8E828F83A3A3A3A3A318
:105AC300A3E05418602B7508018E828F83A3A31261
:105AD3000F4C750CFE750DFF780C12117A7900AC22
:105AE3000AAD0BAA0EAB0F121B7574041211A8801A
:105AF3003E900413E0650E7004A3E0650F701490EC
:105B030032C0E493FCA909AA0AAB0B121A7F7508E9
:105B130001801CA90CAC0AAD0BAA0EAB0F121AAF75
:105B2300E9700C750801A909AA0AAB0B121B09A994
:105B330008025809E50C2415F582E50D126DD512FE
